{
  "abi": [
    {
      "inputs": [
        {
          "internalType": "address",
          "name": "_stake",
          "type": "address"
        },
        {
          "internalType": "uint256",
          "name": "_VAULT_AMOUNT",
          "type": "uint256"
        },
        {
          "internalType": "address",
          "name": "_weth",
          "type": "address"
        }
      ],
      "stateMutability": "nonpayable",
      "type": "constructor"
    },
    {
      "anonymous": false,
      "inputs": [
        {
          "indexed": true,
          "internalType": "address",
          "name": "owner",
          "type": "address"
        },
        {
          "indexed": true,
          "internalType": "address",
          "name": "spender",
          "type": "address"
        },
        {
          "indexed": false,
          "internalType": "uint256",
          "name": "amount",
          "type": "uint256"
        }
      ],
      "name": "Approval",
      "type": "event"
    },
    {
      "anonymous": false,
      "inputs": [
        {
          "indexed": true,
          "internalType": "address",
          "name": "caller",
          "type": "address"
        },
        {
          "indexed": true,
          "internalType": "address",
          "name": "owner",
          "type": "address"
        },
        {
          "indexed": false,
          "internalType": "uint256",
          "name": "assets",
          "type": "uint256"
        },
        {
          "indexed": false,
          "internalType": "uint256",
          "name": "shares",
          "type": "uint256"
        }
      ],
      "name": "Deposit",
      "type": "event"
    },
    {
      "anonymous": false,
      "inputs": [
        {
          "indexed": false,
          "internalType": "uint8",
          "name": "version",
          "type": "uint8"
        }
      ],
      "name": "Initialized",
      "type": "event"
    },
    {
      "anonymous": false,
      "inputs": [
        {
          "indexed": true,
          "internalType": "address",
          "name": "from",
          "type": "address"
        },
        {
          "indexed": true,
          "internalType": "address",
          "name": "to",
          "type": "address"
        },
        {
          "indexed": false,
          "internalType": "uint256",
          "name": "amount",
          "type": "uint256"
        }
      ],
      "name": "Transfer",
      "type": "event"
    },
    {
      "anonymous": false,
      "inputs": [
        {
          "indexed": true,
          "internalType": "address",
          "name": "caller",
          "type": "address"
        },
        {
          "indexed": true,
          "internalType": "address",
          "name": "receiver",
          "type": "address"
        },
        {
          "indexed": true,
          "internalType": "address",
          "name": "owner",
          "type": "address"
        },
        {
          "indexed": false,
          "internalType": "uint256",
          "name": "assets",
          "type": "uint256"
        },
        {
          "indexed": false,
          "internalType": "uint256",
          "name": "shares",
          "type": "uint256"
        }
      ],
      "name": "Withdraw",
      "type": "event"
    },
    {
      "inputs": [],
      "name": "DOMAIN_SEPARATOR",
      "outputs": [
        {
          "internalType": "bytes32",
          "name": "",
          "type": "bytes32"
        }
      ],
      "stateMutability": "view",
      "type": "function"
    },
    {
      "inputs": [],
      "name": "VAULT_AMOUNT",
      "outputs": [
        {
          "internalType": "uint256",
          "name": "",
          "type": "uint256"
        }
      ],
      "stateMutability": "view",
      "type": "function"
    },
    {
      "inputs": [
        {
          "internalType": "address",
          "name": "",
          "type": "address"
        },
        {
          "internalType": "address",
          "name": "",
          "type": "address"
        }
      ],
      "name": "allowance",
      "outputs": [
        {
          "internalType": "uint256",
          "name": "",
          "type": "uint256"
        }
      ],
      "stateMutability": "view",
      "type": "function"
    },
    {
      "inputs": [
        {
          "internalType": "address",
          "name": "spender",
          "type": "address"
        },
        {
          "internalType": "uint256",
          "name": "amount",
          "type": "uint256"
        }
      ],
      "name": "approve",
      "outputs": [
        {
          "internalType": "bool",
          "name": "",
          "type": "bool"
        }
      ],
      "stateMutability": "nonpayable",
      "type": "function"
    },
    {
      "inputs": [],
      "name": "asset",
      "outputs": [
        {
          "internalType": "contract ERC20",
          "name": "",
          "type": "address"
        }
      ],
      "stateMutability": "view",
      "type": "function"
    },
    {
      "inputs": [
        {
          "internalType": "address",
          "name": "",
          "type": "address"
        }
      ],
      "name": "balanceOf",
      "outputs": [
        {
          "internalType": "uint256",
          "name": "",
          "type": "uint256"
        }
      ],
      "stateMutability": "view",
      "type": "function"
    },
    {
      "inputs": [
        {
          "internalType": "uint256",
          "name": "shares",
          "type": "uint256"
        }
      ],
      "name": "convertToAssets",
      "outputs": [
        {
          "internalType": "uint256",
          "name": "",
          "type": "uint256"
        }
      ],
      "stateMutability": "view",
      "type": "function"
    },
    {
      "inputs": [
        {
          "internalType": "uint256",
          "name": "assets",
          "type": "uint256"
        }
      ],
      "name": "convertToShares",
      "outputs": [
        {
          "internalType": "uint256",
          "name": "",
          "type": "uint256"
        }
      ],
      "stateMutability": "view",
      "type": "function"
    },
    {
      "inputs": [],
      "name": "decimals",
      "outputs": [
        {
          "internalType": "uint8",
          "name": "",
          "type": "uint8"
        }
      ],
      "stateMutability": "view",
      "type": "function"
    },
    {
      "inputs": [
        {
          "internalType": "uint256",
          "name": "assets",
          "type": "uint256"
        },
        {
          "internalType": "address",
          "name": "receiver",
          "type": "address"
        }
      ],
      "name": "deposit",
      "outputs": [
        {
          "internalType": "uint256",
          "name": "shares",
          "type": "uint256"
        }
      ],
      "stateMutability": "nonpayable",
      "type": "function"
    },
    {
      "inputs": [],
      "name": "exitDate",
      "outputs": [
        {
          "internalType": "uint256",
          "name": "",
          "type": "uint256"
        }
      ],
      "stateMutability": "view",
      "type": "function"
    },
    {
      "inputs": [],
      "name": "exitStake",
      "outputs": [],
      "stateMutability": "nonpayable",
      "type": "function"
    },
    {
      "inputs": [],
      "name": "initialize",
      "outputs": [],
      "stateMutability": "nonpayable",
      "type": "function"
    },
    {
      "inputs": [
        {
          "internalType": "address",
          "name": "",
          "type": "address"
        }
      ],
      "name": "maxDeposit",
      "outputs": [
        {
          "internalType": "uint256",
          "name": "",
          "type": "uint256"
        }
      ],
      "stateMutability": "view",
      "type": "function"
    },
    {
      "inputs": [],
      "name": "maxDeposit",
      "outputs": [
        {
          "internalType": "uint256",
          "name": "",
          "type": "uint256"
        }
      ],
      "stateMutability": "view",
      "type": "function"
    },
    {
      "inputs": [
        {
          "internalType": "address",
          "name": "",
          "type": "address"
        }
      ],
      "name": "maxMint",
      "outputs": [
        {
          "internalType": "uint256",
          "name": "",
          "type": "uint256"
        }
      ],
      "stateMutability": "view",
      "type": "function"
    },
    {
      "inputs": [
        {
          "internalType": "address",
          "name": "owner",
          "type": "address"
        }
      ],
      "name": "maxRedeem",
      "outputs": [
        {
          "internalType": "uint256",
          "name": "",
          "type": "uint256"
        }
      ],
      "stateMutability": "view",
      "type": "function"
    },
    {
      "inputs": [
        {
          "internalType": "address",
          "name": "owner",
          "type": "address"
        }
      ],
      "name": "maxWithdraw",
      "outputs": [
        {
          "internalType": "uint256",
          "name": "",
          "type": "uint256"
        }
      ],
      "stateMutability": "view",
      "type": "function"
    },
    {
      "inputs": [
        {
          "internalType": "uint256",
          "name": "shares",
          "type": "uint256"
        },
        {
          "internalType": "address",
          "name": "receiver",
          "type": "address"
        }
      ],
      "name": "mint",
      "outputs": [
        {
          "internalType": "uint256",
          "name": "assets",
          "type": "uint256"
        }
      ],
      "stateMutability": "nonpayable",
      "type": "function"
    },
    {
      "inputs": [],
      "name": "name",
      "outputs": [
        {
          "internalType": "string",
          "name": "",
          "type": "string"
        }
      ],
      "stateMutability": "view",
      "type": "function"
    },
    {
      "inputs": [
        {
          "internalType": "address",
          "name": "",
          "type": "address"
        }
      ],
      "name": "nonces",
      "outputs": [
        {
          "internalType": "uint256",
          "name": "",
          "type": "uint256"
        }
      ],
      "stateMutability": "view",
      "type": "function"
    },
    {
      "inputs": [
        {
          "internalType": "address",
          "name": "",
          "type": "address"
        },
        {
          "internalType": "address",
          "name": "",
          "type": "address"
        },
        {
          "internalType": "uint256",
          "name": "",
          "type": "uint256"
        },
        {
          "internalType": "bytes",
          "name": "",
          "type": "bytes"
        }
      ],
      "name": "onERC721Received",
      "outputs": [
        {
          "internalType": "bytes4",
          "name": "",
          "type": "bytes4"
        }
      ],
      "stateMutability": "pure",
      "type": "function"
    },
    {
      "inputs": [
        {
          "internalType": "address",
          "name": "owner",
          "type": "address"
        },
        {
          "internalType": "address",
          "name": "spender",
          "type": "address"
        },
        {
          "internalType": "uint256",
          "name": "value",
          "type": "uint256"
        },
        {
          "internalType": "uint256",
          "name": "deadline",
          "type": "uint256"
        },
        {
          "internalType": "uint8",
          "name": "v",
          "type": "uint8"
        },
        {
          "internalType": "bytes32",
          "name": "r",
          "type": "bytes32"
        },
        {
          "internalType": "bytes32",
          "name": "s",
          "type": "bytes32"
        }
      ],
      "name": "permit",
      "outputs": [],
      "stateMutability": "nonpayable",
      "type": "function"
    },
    {
      "inputs": [
        {
          "internalType": "uint256",
          "name": "assets",
          "type": "uint256"
        }
      ],
      "name": "previewDeposit",
      "outputs": [
        {
          "internalType": "uint256",
          "name": "",
          "type": "uint256"
        }
      ],
      "stateMutability": "view",
      "type": "function"
    },
    {
      "inputs": [
        {
          "internalType": "uint256",
          "name": "shares",
          "type": "uint256"
        }
      ],
      "name": "previewMint",
      "outputs": [
        {
          "internalType": "uint256",
          "name": "",
          "type": "uint256"
        }
      ],
      "stateMutability": "view",
      "type": "function"
    },
    {
      "inputs": [
        {
          "internalType": "uint256",
          "name": "shares",
          "type": "uint256"
        }
      ],
      "name": "previewRedeem",
      "outputs": [
        {
          "internalType": "uint256",
          "name": "",
          "type": "uint256"
        }
      ],
      "stateMutability": "view",
      "type": "function"
    },
    {
      "inputs": [
        {
          "internalType": "uint256",
          "name": "assets",
          "type": "uint256"
        }
      ],
      "name": "previewWithdraw",
      "outputs": [
        {
          "internalType": "uint256",
          "name": "",
          "type": "uint256"
        }
      ],
      "stateMutability": "view",
      "type": "function"
    },
    {
      "inputs": [
        {
          "internalType": "uint256",
          "name": "shares",
          "type": "uint256"
        },
        {
          "internalType": "address",
          "name": "receiver",
          "type": "address"
        },
        {
          "internalType": "address",
          "name": "owner",
          "type": "address"
        }
      ],
      "name": "redeem",
      "outputs": [
        {
          "internalType": "uint256",
          "name": "assets",
          "type": "uint256"
        }
      ],
      "stateMutability": "nonpayable",
      "type": "function"
    },
    {
      "inputs": [
        {
          "internalType": "uint256",
          "name": "assets",
          "type": "uint256"
        }
      ],
      "name": "redeemETH",
      "outputs": [],
      "stateMutability": "nonpayable",
      "type": "function"
    },
    {
      "inputs": [],
      "name": "stake",
      "outputs": [
        {
          "internalType": "contract ISenseiStake",
          "name": "",
          "type": "address"
        }
      ],
      "stateMutability": "view",
      "type": "function"
    },
    {
      "inputs": [],
      "name": "state",
      "outputs": [
        {
          "internalType": "enum Vault.CurrentState",
          "name": "",
          "type": "uint8"
        }
      ],
      "stateMutability": "view",
      "type": "function"
    },
    {
      "inputs": [],
      "name": "symbol",
      "outputs": [
        {
          "internalType": "string",
          "name": "",
          "type": "string"
        }
      ],
      "stateMutability": "view",
      "type": "function"
    },
    {
      "inputs": [],
      "name": "tokenId",
      "outputs": [
        {
          "internalType": "uint256",
          "name": "",
          "type": "uint256"
        }
      ],
      "stateMutability": "view",
      "type": "function"
    },
    {
      "inputs": [],
      "name": "totalAssets",
      "outputs": [
        {
          "internalType": "uint256",
          "name": "",
          "type": "uint256"
        }
      ],
      "stateMutability": "view",
      "type": "function"
    },
    {
      "inputs": [],
      "name": "totalEarns",
      "outputs": [
        {
          "internalType": "uint256",
          "name": "",
          "type": "uint256"
        }
      ],
      "stateMutability": "view",
      "type": "function"
    },
    {
      "inputs": [],
      "name": "totalSupply",
      "outputs": [
        {
          "internalType": "uint256",
          "name": "",
          "type": "uint256"
        }
      ],
      "stateMutability": "view",
      "type": "function"
    },
    {
      "inputs": [
        {
          "internalType": "address",
          "name": "to",
          "type": "address"
        },
        {
          "internalType": "uint256",
          "name": "amount",
          "type": "uint256"
        }
      ],
      "name": "transfer",
      "outputs": [
        {
          "internalType": "bool",
          "name": "",
          "type": "bool"
        }
      ],
      "stateMutability": "nonpayable",
      "type": "function"
    },
    {
      "inputs": [
        {
          "internalType": "address",
          "name": "from",
          "type": "address"
        },
        {
          "internalType": "address",
          "name": "to",
          "type": "address"
        },
        {
          "internalType": "uint256",
          "name": "amount",
          "type": "uint256"
        }
      ],
      "name": "transferFrom",
      "outputs": [
        {
          "internalType": "bool",
          "name": "",
          "type": "bool"
        }
      ],
      "stateMutability": "nonpayable",
      "type": "function"
    },
    {
      "inputs": [
        {
          "internalType": "uint256",
          "name": "assets",
          "type": "uint256"
        },
        {
          "internalType": "address",
          "name": "receiver",
          "type": "address"
        },
        {
          "internalType": "address",
          "name": "owner",
          "type": "address"
        }
      ],
      "name": "withdraw",
      "outputs": [
        {
          "internalType": "uint256",
          "name": "shares",
          "type": "uint256"
        }
      ],
      "stateMutability": "nonpayable",
      "type": "function"
    },
    {
      "stateMutability": "payable",
      "type": "receive"
    }
  ],
  "bytecode": {
    "object": "0x6101406040523480156200001257600080fd5b506040516200248c3803806200248c833981016040819052620000359162000250565b806040518060400160405280601281526020017129ba30b5b2aa37b3b2ba3432b92a37b5b2b760711b8152506040518060400160405280600381526020016214d51560ea1b8152508181846001600160a01b031663313ce5676040518163ffffffff1660e01b8152600401602060405180830381865afa158015620000be573d6000803e3d6000fd5b505050506040513d601f19601f82011682018060405250810190620000e4919062000291565b6000620000f2848262000362565b50600162000101838262000362565b5060ff81166080524660a0526200011762000197565b60c0525050506001600160a01b0390921660e0525050816200017f5760405162461bcd60e51b815260206004820152601460248201527f496e76616c6964205641554c545f414d4f554e54000000000000000000000000604482015260640160405180910390fd5b50610120526001600160a01b031661010052620004ac565b60007f8b73c3c69bb8fe3d512ecc4cf759cc79239f7b179b0ffacaa9a75d522b39400f6000604051620001cb91906200042e565b6040805191829003822060208301939093528101919091527fc89efdaa54c0f20c7adf612882df0950f5a951637e0307cdcb4c672f298b8bc660608201524660808201523060a082015260c00160405160208183030381529060405280519060200120905090565b80516001600160a01b03811681146200024b57600080fd5b919050565b6000806000606084860312156200026657600080fd5b620002718462000233565b925060208401519150620002886040850162000233565b90509250925092565b600060208284031215620002a457600080fd5b815160ff81168114620002b657600080fd5b9392505050565b634e487b7160e01b600052604160045260246000fd5b600181811c90821680620002e857607f821691505b6020821081036200030957634e487b7160e01b600052602260045260246000fd5b50919050565b601f8211156200035d57600081815260208120601f850160051c81016020861015620003385750805b601f850160051c820191505b81811015620003595782815560010162000344565b5050505b505050565b81516001600160401b038111156200037e576200037e620002bd565b62000396816200038f8454620002d3565b846200030f565b602080601f831160018114620003ce5760008415620003b55750858301515b600019600386901b1c1916600185901b17855562000359565b600085815260208120601f198616915b82811015620003ff57888601518255948401946001909101908401620003de565b50858210156200041e5787850151600019600388901b60f8161c191681555b5050505050600190811b01905550565b60008083546200043e81620002d3565b600182811680156200045957600181146200046f57620004a0565b60ff1984168752821515830287019450620004a0565b8760005260208060002060005b85811015620004975781548a8201529084019082016200047c565b50505082870194505b50929695505050505050565b60805160a05160c05160e0516101005161012051611f206200056c6000396000818161047101528181610538015281816106e5015281816117fb0152818161184301526118fe0152600081816104a501528181610b480152818161159701526118cf0152600081816104250152818161082201528181610bb801528181610c6c01528181610de201528181610f8601528181611181015281816112cd015261187101526000610af701526000610ac7015260006103b30152611f206000f3fe6080604052600436106102345760003560e01c80636083e59a1161012e578063ba087652116100ab578063d505accf1161006f578063d505accf14610747578063d707a65214610767578063d905777e1461077c578063dd62ed3e146107b2578063ef8b30f7146107ea57600080fd5b8063ba08765214610680578063c19d93fb146106a0578063c63d75b6146106c7578063c6e6f59214610707578063ce96cb771461072757600080fd5b806394bf804d116100f257806394bf804d146105eb57806395d89b411461060b578063a9059cbb14610620578063b3d7f6b914610640578063b460af941461066057600080fd5b80636083e59a146105295780636e553f651461055c57806370a082311461057c5780637ecebe00146105a95780638129fc1c146105d657600080fd5b806323b872dd116101bc57806339c973d31161018057806339c973d31461045f5780633a4b66f114610493578063402d267d146104c75780634cdad506146104e9578063525d02b81461050957600080fd5b806323b872dd14610381578063313ce567146103a15780633644e515146103e75780633882f742146103fc57806338d52e0f1461041357600080fd5b8063095ea7b311610203578063095ea7b3146102c05780630a28a477146102f0578063150b7a021461031057806317d70f7c1461035557806318160ddd1461036b57600080fd5b806301e1d1141461024057806303d735321461026857806306fdde031461027e57806307a2d13a146102a057600080fd5b3661023b57005b600080fd5b34801561024c57600080fd5b5061025561080a565b6040519081526020015b60405180910390f35b34801561027457600080fd5b5061025560085481565b34801561028a57600080fd5b5061029361089b565b60405161025f9190611aba565b3480156102ac57600080fd5b506102556102bb366004611b08565b610929565b3480156102cc57600080fd5b506102e06102db366004611b3d565b610956565b604051901515815260200161025f565b3480156102fc57600080fd5b5061025561030b366004611b08565b6109c3565b34801561031c57600080fd5b5061033c61032b366004611b67565b630a85bd0160e11b95945050505050565b6040516001600160e01b0319909116815260200161025f565b34801561036157600080fd5b5061025560075481565b34801561037757600080fd5b5061025560025481565b34801561038d57600080fd5b506102e061039c366004611c02565b6109e3565b3480156103ad57600080fd5b506103d57f000000000000000000000000000000000000000000000000000000000000000081565b60405160ff909116815260200161025f565b3480156103f357600080fd5b50610255610ac3565b34801561040857600080fd5b50610411610b19565b005b34801561041f57600080fd5b506104477f000000000000000000000000000000000000000000000000000000000000000081565b6040516001600160a01b03909116815260200161025f565b34801561046b57600080fd5b506102557f000000000000000000000000000000000000000000000000000000000000000081565b34801561049f57600080fd5b506104477f000000000000000000000000000000000000000000000000000000000000000081565b3480156104d357600080fd5b506102556104e2366004611c3e565b5060001990565b3480156104f557600080fd5b50610255610504366004611b08565b610c5f565b34801561051557600080fd5b50610411610524366004611b08565b610c6a565b34801561053557600080fd5b507f0000000000000000000000000000000000000000000000000000000000000000610255565b34801561056857600080fd5b50610255610577366004611c59565b610d8a565b34801561058857600080fd5b50610255610597366004611c3e565b60036020526000908152604090205481565b3480156105b557600080fd5b506102556105c4366004611c3e565b60056020526000908152604090205481565b3480156105e257600080fd5b50610411610e64565b3480156105f757600080fd5b50610255610606366004611c59565b610f6c565b34801561061757600080fd5b50610293611008565b34801561062c57600080fd5b506102e061063b366004611b3d565b611015565b34801561064c57600080fd5b5061025561065b366004611b08565b61107b565b34801561066c57600080fd5b5061025561067b366004611c85565b61109a565b34801561068c57600080fd5b5061025561069b366004611c85565b6111a8565b3480156106ac57600080fd5b506009546106ba9060ff1681565b60405161025f9190611cd7565b3480156106d357600080fd5b506102556106e2366004611c3e565b507f000000000000000000000000000000000000000000000000000000000000000090565b34801561071357600080fd5b50610255610722366004611b08565b6112f4565b34801561073357600080fd5b50610255610742366004611c3e565b611314565b34801561075357600080fd5b50610411610762366004611cff565b611336565b34801561077357600080fd5b5061025561157a565b34801561078857600080fd5b50610255610797366004611c3e565b6001600160a01b031660009081526003602052604090205490565b3480156107be57600080fd5b506102556107cd366004611d72565b600460209081526000928352604080842090915290825290205481565b3480156107f657600080fd5b50610255610805366004611b08565b6115ce565b6040516370a0823160e01b81523060048201526000907f00000000000000000000000000000000000000000000000000000000000000006001600160a01b0316906370a08231906024015b602060405180830381865afa158015610872573d6000803e3d6000fd5b505050506040513d601f19601f820116820180604052508101906108969190611d9c565b905090565b600080546108a890611db5565b80601f01602080910402602001604051908101604052809291908181526020018280546108d490611db5565b80156109215780601f106108f657610100808354040283529160200191610921565b820191906000526020600020905b81548152906001019060200180831161090457829003601f168201915b505050505081565b600254600090801561094d5761094861094061080a565b8490836115d9565b61094f565b825b9392505050565b3360008181526004602090815260408083206001600160a01b038716808552925280832085905551919290917f8c5be1e5ebec7d5bd14f71427d1e84f3dd0314c0f7b2291e5b200ac8c7c3b925906109b19086815260200190565b60405180910390a35060015b92915050565b600254600090801561094d57610948816109db61080a565b8591906115f8565b6001600160a01b03831660009081526004602090815260408083203384529091528120546000198114610a3f57610a1a8382611e05565b6001600160a01b03861660009081526004602090815260408083203384529091529020555b6001600160a01b03851660009081526003602052604081208054859290610a67908490611e05565b90915550506001600160a01b0380851660008181526003602052604090819020805487019055519091871690600080516020611ecb83398151915290610ab09087815260200190565b60405180910390a3506001949350505050565b60007f00000000000000000000000000000000000000000000000000000000000000004614610af457610896611626565b507f000000000000000000000000000000000000000000000000000000000000000090565b6009805460ff1916600217905560075460405163d91f8f2b60e01b815260048101919091526001600160a01b037f0000000000000000000000000000000000000000000000000000000000000000169063d91f8f2b90602401600060405180830381600087803b158015610b8c57600080fd5b505af1158015610ba0573d6000803e3d6000fd5b50504760085550506040516000906001600160a01b037f0000000000000000000000000000000000000000000000000000000000000000169047908381818185875af1925050503d8060008114610c13576040519150601f19603f3d011682016040523d82523d6000602084013e610c18565b606091505b5050905080610c5c5760405162461bcd60e51b815260206004820152600b60248201526a1cd95b990819985a5b195960aa1b60448201526064015b60405180910390fd5b50565b60006109bd82610929565b7f00000000000000000000000000000000000000000000000000000000000000006000610c9683610c5f565b9050610ca38330336111a8565b50604051632e1a7d4d60e01b8152600481018290526001600160a01b03831690632e1a7d4d90602401600060405180830381600087803b158015610ce657600080fd5b505af1158015610cfa573d6000803e3d6000fd5b50506040516000925033915083908381818185875af1925050503d8060008114610d40576040519150601f19603f3d011682016040523d82523d6000602084013e610d45565b606091505b5050905080610d845760405162461bcd60e51b815260206004820152600b60248201526a1cd95b990819985a5b195960aa1b6044820152606401610c53565b50505050565b6000610d95836115ce565b905080600003610dd55760405162461bcd60e51b815260206004820152600b60248201526a5a45524f5f53484152455360a81b6044820152606401610c53565b610e0a6001600160a01b037f0000000000000000000000000000000000000000000000000000000000000000163330866116c0565b610e14828261174a565b60408051848152602081018390526001600160a01b0384169133917fdcbc1c05240f31ff3ad067ef1ee35ce4997762752e3a095284754544f4c709d7910160405180910390a36109bd83826117a4565b600654610100900460ff1615808015610e845750600654600160ff909116105b80610e9e5750303b158015610e9e575060065460ff166001145b610f015760405162461bcd60e51b815260206004820152602e60248201527f496e697469616c697a61626c653a20636f6e747261637420697320616c72656160448201526d191e481a5b9a5d1a585b1a5e995960921b6064820152608401610c53565b6006805460ff191660011790558015610f24576006805461ff0019166101001790555b8015610c5c576006805461ff0019169055604051600181527f7f26b83ff96e1f2b6a682f133852f6798a09c465da95921460cefb38474024989060200160405180910390a150565b6000610f778361107b565b9050610fae6001600160a01b037f0000000000000000000000000000000000000000000000000000000000000000163330846116c0565b610fb8828461174a565b60408051828152602081018590526001600160a01b0384169133917fdcbc1c05240f31ff3ad067ef1ee35ce4997762752e3a095284754544f4c709d7910160405180910390a36109bd81846117a4565b600180546108a890611db5565b33600090815260036020526040812080548391908390611036908490611e05565b90915550506001600160a01b03831660008181526003602052604090819020805485019055513390600080516020611ecb833981519152906109b19086815260200190565b600254600090801561094d5761094861109261080a565b8490836115f8565b60006110a5846109c3565b9050336001600160a01b03831614611115576001600160a01b03821660009081526004602090815260408083203384529091529020546000198114611113576110ee8282611e05565b6001600160a01b03841660009081526004602090815260408083203384529091529020555b505b61111f848261197a565b61112982826119e0565b60408051858152602081018390526001600160a01b03808516929086169133917ffbde797d201c681b91056529119e0b02407c7bb96a4a2c75c01fc9667232c8db910160405180910390a461094f6001600160a01b037f0000000000000000000000000000000000000000000000000000000000000000168486611a42565b6000336001600160a01b03831614611218576001600160a01b03821660009081526004602090815260408083203384529091529020546000198114611216576111f18582611e05565b6001600160a01b03841660009081526004602090815260408083203384529091529020555b505b61122184610c5f565b9050806000036112615760405162461bcd60e51b815260206004820152600b60248201526a5a45524f5f41535345545360a81b6044820152606401610c53565b61126b818561197a565b61127582856119e0565b60408051828152602081018690526001600160a01b03808516929086169133917ffbde797d201c681b91056529119e0b02407c7bb96a4a2c75c01fc9667232c8db910160405180910390a461094f6001600160a01b037f0000000000000000000000000000000000000000000000000000000000000000168483611a42565b600254600090801561094d576109488161130c61080a565b8591906115d9565b6001600160a01b0381166000908152600360205260408120546109bd90610929565b428410156113865760405162461bcd60e51b815260206004820152601760248201527f5045524d49545f444541444c494e455f455850495245440000000000000000006044820152606401610c53565b60006001611392610ac3565b6001600160a01b038a811660008181526005602090815260409182902080546001810190915582517f6e71edae12b1b97f4d1f60370fef10105fa2faae0126114a169c64845d6126c98184015280840194909452938d166060840152608083018c905260a083019390935260c08083018b90528151808403909101815260e08301909152805192019190912061190160f01b6101008301526101028201929092526101228101919091526101420160408051601f198184030181528282528051602091820120600084529083018083525260ff871690820152606081018590526080810184905260a0016020604051602081039080840390855afa15801561149e573d6000803e3d6000fd5b5050604051601f1901519150506001600160a01b038116158015906114d45750876001600160a01b0316816001600160a01b0316145b6115115760405162461bcd60e51b815260206004820152600e60248201526d24a72b20a624a22fa9a4a3a722a960911b6044820152606401610c53565b6001600160a01b0390811660009081526004602090815260408083208a8516808552908352928190208990555188815291928a16917f8c5be1e5ebec7d5bd14f71427d1e84f3dd0314c0f7b2291e5b200ac8c7c3b925910160405180910390a350505050505050565b600754604051638f7ecc6760e01b81526000916001600160a01b037f00000000000000000000000000000000000000000000000000000000000000001691638f7ecc67916108559160040190815260200190565b60006109bd826112f4565b8282028115158415858304851417166115f157600080fd5b0492915050565b82820281151584158583048514171661161057600080fd5b6001826001830304018115150290509392505050565b60007f8b73c3c69bb8fe3d512ecc4cf759cc79239f7b179b0ffacaa9a75d522b39400f60006040516116589190611e18565b6040805191829003822060208301939093528101919091527fc89efdaa54c0f20c7adf612882df0950f5a951637e0307cdcb4c672f298b8bc660608201524660808201523060a082015260c00160405160208183030381529060405280519060200120905090565b60006040516323b872dd60e01b81528460048201528360248201528260448201526020600060648360008a5af13d15601f3d11600160005114161716915050806117435760405162461bcd60e51b81526020600482015260146024820152731514905394d1915497d19493d357d1905253115160621b6044820152606401610c53565b5050505050565b806002600082825461175c9190611eb7565b90915550506001600160a01b038216600081815260036020908152604080832080548601905551848152600080516020611ecb83398151915291015b60405180910390a35050565b600060095460ff1660028111156117bd576117bd611cc1565b146117f95760405162461bcd60e51b815260206004820152600c60248201526b18d85b9d0819195c1bdcda5d60a21b6044820152606401610c53565b7f000000000000000000000000000000000000000000000000000000000000000061182261080a565b03611976576009805460ff19166001179055604051632e1a7d4d60e01b81527f000000000000000000000000000000000000000000000000000000000000000060048201526001600160a01b037f00000000000000000000000000000000000000000000000000000000000000001690632e1a7d4d90602401600060405180830381600087803b1580156118b557600080fd5b505af11580156118c9573d6000803e3d6000fd5b505050507f00000000000000000000000000000000000000000000000000000000000000006001600160a01b031663b9c4788c7f00000000000000000000000000000000000000000000000000000000000000006040518263ffffffff1660e01b815260040160206040518083038185885af115801561194d573d6000803e3d6000fd5b50505050506040513d601f19601f820116820180604052508101906119729190611d9c565b6007555b5050565b600160095460ff16600281111561199357611993611cc1565b036119765760405162461bcd60e51b815260206004820152601860248201527f6e6f646520776f726b696e672c2066756e6473206c6f636b00000000000000006044820152606401610c53565b6001600160a01b03821660009081526003602052604081208054839290611a08908490611e05565b90915550506002805482900390556040518181526000906001600160a01b03841690600080516020611ecb83398151915290602001611798565b600060405163a9059cbb60e01b8152836004820152826024820152602060006044836000895af13d15601f3d1160016000511416171691505080610d845760405162461bcd60e51b815260206004820152600f60248201526e1514905394d1915497d19052531151608a1b6044820152606401610c53565b600060208083528351808285015260005b81811015611ae757858101830151858201604001528201611acb565b506000604082860101526040601f19601f8301168501019250505092915050565b600060208284031215611b1a57600080fd5b5035919050565b80356001600160a01b0381168114611b3857600080fd5b919050565b60008060408385031215611b5057600080fd5b611b5983611b21565b946020939093013593505050565b600080600080600060808688031215611b7f57600080fd5b611b8886611b21565b9450611b9660208701611b21565b935060408601359250606086013567ffffffffffffffff80821115611bba57600080fd5b818801915088601f830112611bce57600080fd5b813581811115611bdd57600080fd5b896020828501011115611bef57600080fd5b9699959850939650602001949392505050565b600080600060608486031215611c1757600080fd5b611c2084611b21565b9250611c2e60208501611b21565b9150604084013590509250925092565b600060208284031215611c5057600080fd5b61094f82611b21565b60008060408385031215611c6c57600080fd5b82359150611c7c60208401611b21565b90509250929050565b600080600060608486031215611c9a57600080fd5b83359250611caa60208501611b21565b9150611cb860408501611b21565b90509250925092565b634e487b7160e01b600052602160045260246000fd5b6020810160038310611cf957634e487b7160e01b600052602160045260246000fd5b91905290565b600080600080600080600060e0888a031215611d1a57600080fd5b611d2388611b21565b9650611d3160208901611b21565b95506040880135945060608801359350608088013560ff81168114611d5557600080fd5b9699959850939692959460a0840135945060c09093013592915050565b60008060408385031215611d8557600080fd5b611d8e83611b21565b9150611c7c60208401611b21565b600060208284031215611dae57600080fd5b5051919050565b600181811c90821680611dc957607f821691505b602082108103611de957634e487b7160e01b600052602260045260246000fd5b50919050565b634e487b7160e01b600052601160045260246000fd5b818103818111156109bd576109bd611def565b600080835481600182811c915080831680611e3457607f831692505b60208084108203611e5357634e487b7160e01b86526022600452602486fd5b818015611e675760018114611e7c57611ea9565b60ff1986168952841515850289019650611ea9565b60008a81526020902060005b86811015611ea15781548b820152908501908301611e88565b505084890196505b509498975050505050505050565b808201808211156109bd576109bd611def56feddf252ad1be2c89b69c2b068fc378daa952ba7f163c4a11628f55a4df523b3efa2646970667358221220523a8fe5afbbde2bf48ccda2b6347dba67fafbf24f956a827134c28646f674d564736f6c63430008100033",
    "linkReferences": {}
  },
  "methodIdentifiers": {
    "DOMAIN_SEPARATOR()": "3644e515",
    "VAULT_AMOUNT()": "39c973d3",
    "allowance(address,address)": "dd62ed3e",
    "approve(address,uint256)": "095ea7b3",
    "asset()": "38d52e0f",
    "balanceOf(address)": "70a08231",
    "convertToAssets(uint256)": "07a2d13a",
    "convertToShares(uint256)": "c6e6f592",
    "decimals()": "313ce567",
    "deposit(uint256,address)": "6e553f65",
    "exitDate()": "d707a652",
    "exitStake()": "3882f742",
    "initialize()": "8129fc1c",
    "maxDeposit()": "6083e59a",
    "maxDeposit(address)": "402d267d",
    "maxMint(address)": "c63d75b6",
    "maxRedeem(address)": "d905777e",
    "maxWithdraw(address)": "ce96cb77",
    "mint(uint256,address)": "94bf804d",
    "name()": "06fdde03",
    "nonces(address)": "7ecebe00",
    "onERC721Received(address,address,uint256,bytes)": "150b7a02",
    "permit(address,address,uint256,uint256,uint8,bytes32,bytes32)": "d505accf",
    "previewDeposit(uint256)": "ef8b30f7",
    "previewMint(uint256)": "b3d7f6b9",
    "previewRedeem(uint256)": "4cdad506",
    "previewWithdraw(uint256)": "0a28a477",
    "redeem(uint256,address,address)": "ba087652",
    "redeemETH(uint256)": "525d02b8",
    "stake()": "3a4b66f1",
    "state()": "c19d93fb",
    "symbol()": "95d89b41",
    "tokenId()": "17d70f7c",
    "totalAssets()": "01e1d114",
    "totalEarns()": "03d73532",
    "totalSupply()": "18160ddd",
    "transfer(address,uint256)": "a9059cbb",
    "transferFrom(address,address,uint256)": "23b872dd",
    "withdraw(uint256,address,address)": "b460af94"
  },
  "id": 28
}