{
  "abi": [
    {
      "anonymous": false,
      "inputs": [
        {
          "indexed": false,
          "internalType": "uint8",
          "name": "version",
          "type": "uint8"
        }
      ],
      "name": "Initialized",
      "type": "event"
    },
    {
      "inputs": [
        {
          "internalType": "uint256",
          "name": "_vaultId",
          "type": "uint256"
        }
      ],
      "name": "initialize",
      "outputs": [],
      "stateMutability": "nonpayable",
      "type": "function"
    },
    {
      "inputs": [],
      "name": "vaultId",
      "outputs": [
        {
          "internalType": "uint256",
          "name": "",
          "type": "uint256"
        }
      ],
      "stateMutability": "view",
      "type": "function"
    }
  ],
  "bytecode": {
    "object": "0x608060405234801561001057600080fd5b506101cd806100206000396000f3fe608060405234801561001057600080fd5b50600436106100365760003560e01c806333194c0a1461003b578063fe4b84df14610056575b600080fd5b61004460015481565b60405190815260200160405180910390f35b61006961006436600461017e565b61006b565b005b600054610100900460ff161580801561008b5750600054600160ff909116105b806100a55750303b1580156100a5575060005460ff166001145b61010c5760405162461bcd60e51b815260206004820152602e60248201527f496e697469616c697a61626c653a20636f6e747261637420697320616c72656160448201526d191e481a5b9a5d1a585b1a5e995960921b606482015260840160405180910390fd5b6000805460ff19166001179055801561012f576000805461ff0019166101001790555b6001829055801561017a576000805461ff0019169055604051600181527f7f26b83ff96e1f2b6a682f133852f6798a09c465da95921460cefb38474024989060200160405180910390a15b5050565b60006020828403121561019057600080fd5b503591905056fea2646970667358221220f82cc0e095638cee71dba69fc0a4cf4be14a5748dfb9e5bb33d08f47a8e01d3064736f6c63430008100033",
    "linkReferences": {}
  },
  "methodIdentifiers": {
    "initialize(uint256)": "fe4b84df",
    "vaultId()": "33194c0a"
  },
  "id": 12
}