{
  "abi": [
    {
      "inputs": [],
      "stateMutability": "nonpayable",
      "type": "constructor"
    },
    {
      "inputs": [],
      "name": "VAULT_AMOUNT",
      "outputs": [
        {
          "internalType": "uint256",
          "name": "",
          "type": "uint256"
        }
      ],
      "stateMutability": "view",
      "type": "function"
    },
    {
      "inputs": [],
      "name": "addFunds",
      "outputs": [],
      "stateMutability": "payable",
      "type": "function"
    },
    {
      "inputs": [],
      "name": "vault",
      "outputs": [
        {
          "internalType": "address",
          "name": "",
          "type": "address"
        }
      ],
      "stateMutability": "view",
      "type": "function"
    },
    {
      "inputs": [
        {
          "internalType": "uint256",
          "name": "",
          "type": "uint256"
        }
      ],
      "name": "vaults",
      "outputs": [
        {
          "internalType": "address",
          "name": "",
          "type": "address"
        }
      ],
      "stateMutability": "view",
      "type": "function"
    }
  ],
  "bytecode": {
    "object": "0x60a060405234801561001057600080fd5b5060405161001d9061004b565b604051809103906000f080158015610039573d6000803e3d6000fd5b506001600160a01b0316608052610058565b6101ed8061020c83390190565b60805161019a610072600039600060de015261019a6000f3fe60806040526004361061003f5760003560e01c806339c973d3146100445780638c64ea4a14610074578063a26759cb146100c2578063fbfa77cf146100cc575b600080fd5b34801561005057600080fd5b506100616801bc16d674ec80000081565b6040519081526020015b60405180910390f35b34801561008057600080fd5b506100aa61008f36600461014b565b6001602052600090815260409020546001600160a01b031681565b6040516001600160a01b03909116815260200161006b565b6100ca610100565b005b3480156100d857600080fd5b506100aa7f000000000000000000000000000000000000000000000000000000000000000081565b600034116101495760405162461bcd60e51b8152602060048201526012602482015271696e73756666696369656e742066756e647360701b604482015260640160405180910390fd5b565b60006020828403121561015d57600080fd5b503591905056fea2646970667358221220a22645cb6163fa60beb262910d30174f7e9b17d8de1ee1d66cc0d13e48d3ea0b64736f6c63430008100033608060405234801561001057600080fd5b506101cd806100206000396000f3fe608060405234801561001057600080fd5b50600436106100365760003560e01c806333194c0a1461003b578063fe4b84df14610056575b600080fd5b61004460015481565b60405190815260200160405180910390f35b61006961006436600461017e565b61006b565b005b600054610100900460ff161580801561008b5750600054600160ff909116105b806100a55750303b1580156100a5575060005460ff166001145b61010c5760405162461bcd60e51b815260206004820152602e60248201527f496e697469616c697a61626c653a20636f6e747261637420697320616c72656160448201526d191e481a5b9a5d1a585b1a5e995960921b606482015260840160405180910390fd5b6000805460ff19166001179055801561012f576000805461ff0019166101001790555b6001829055801561017a576000805461ff0019169055604051600181527f7f26b83ff96e1f2b6a682f133852f6798a09c465da95921460cefb38474024989060200160405180910390a15b5050565b60006020828403121561019057600080fd5b503591905056fea264697066735822122057c4282d8b396c95d1d5e8f56b6b94ff5efc18b1d6a3e7f4a156ed78785e289264736f6c63430008100033",
    "linkReferences": {}
  },
  "methodIdentifiers": {
    "VAULT_AMOUNT()": "39c973d3",
    "addFunds()": "a26759cb",
    "vault()": "fbfa77cf",
    "vaults(uint256)": "8c64ea4a"
  },
  "id": 12
}