{
  "abi": [
    {
      "inputs": [
        {
          "internalType": "address",
          "name": "_stake",
          "type": "address"
        },
        {
          "internalType": "address",
          "name": "_weth",
          "type": "address"
        }
      ],
      "stateMutability": "nonpayable",
      "type": "constructor"
    },
    {
      "anonymous": false,
      "inputs": [
        {
          "indexed": true,
          "internalType": "address",
          "name": "user",
          "type": "address"
        },
        {
          "indexed": false,
          "internalType": "uint256",
          "name": "amount",
          "type": "uint256"
        },
        {
          "indexed": false,
          "internalType": "uint256",
          "name": "timestamp",
          "type": "uint256"
        }
      ],
      "name": "FundsAdded",
      "type": "event"
    },
    {
      "anonymous": false,
      "inputs": [
        {
          "indexed": true,
          "internalType": "address",
          "name": "vault",
          "type": "address"
        },
        {
          "indexed": false,
          "internalType": "uint256",
          "name": "timestamp",
          "type": "uint256"
        }
      ],
      "name": "VaultCreated",
      "type": "event"
    },
    {
      "inputs": [],
      "name": "VAULT_AMOUNT",
      "outputs": [
        {
          "internalType": "uint256",
          "name": "",
          "type": "uint256"
        }
      ],
      "stateMutability": "view",
      "type": "function"
    },
    {
      "inputs": [],
      "name": "depositToVault",
      "outputs": [],
      "stateMutability": "payable",
      "type": "function"
    },
    {
      "inputs": [
        {
          "internalType": "uint256",
          "name": "_amount",
          "type": "uint256"
        }
      ],
      "name": "depositToVault",
      "outputs": [],
      "stateMutability": "nonpayable",
      "type": "function"
    },
    {
      "inputs": [],
      "name": "getUserVaults",
      "outputs": [
        {
          "internalType": "address[]",
          "name": "",
          "type": "address[]"
        }
      ],
      "stateMutability": "view",
      "type": "function"
    },
    {
      "inputs": [],
      "name": "getVaultsLen",
      "outputs": [
        {
          "internalType": "uint256",
          "name": "",
          "type": "uint256"
        }
      ],
      "stateMutability": "view",
      "type": "function"
    },
    {
      "inputs": [
        {
          "internalType": "address",
          "name": "",
          "type": "address"
        },
        {
          "internalType": "uint256",
          "name": "",
          "type": "uint256"
        }
      ],
      "name": "userVaults",
      "outputs": [
        {
          "internalType": "address",
          "name": "",
          "type": "address"
        }
      ],
      "stateMutability": "view",
      "type": "function"
    },
    {
      "inputs": [],
      "name": "vaultImplementation",
      "outputs": [
        {
          "internalType": "address",
          "name": "",
          "type": "address"
        }
      ],
      "stateMutability": "view",
      "type": "function"
    },
    {
      "inputs": [
        {
          "internalType": "uint256",
          "name": "",
          "type": "uint256"
        }
      ],
      "name": "vaults",
      "outputs": [
        {
          "internalType": "address",
          "name": "",
          "type": "address"
        }
      ],
      "stateMutability": "view",
      "type": "function"
    },
    {
      "inputs": [],
      "name": "weth",
      "outputs": [
        {
          "internalType": "address",
          "name": "",
          "type": "address"
        }
      ],
      "stateMutability": "view",
      "type": "function"
    }
  ],
  "bytecode": {
    "object": "0x60c06040523480156200001157600080fd5b50604051620035453803806200354583398101604081905262000034916200031a565b6001600160a01b03811660a05260405182906801bc16d674ec8000009083906200005e90620002f4565b6001600160a01b03938416815260208101929092529091166040820152606001604051809103906000f0801580156200009b573d6000803e3d6000fd5b506001600160a01b0316608052620000b2620000ba565b50506200037d565b6000620000d46080516200024e60201b620007e21760201c565b600080546001600160a01b0319166001600160a01b03831690811782556040805163204a7f0760e21b815290519394509092638129fc1c9260048084019391929182900301818387803b1580156200012b57600080fd5b505af115801562000140573d6000803e3d6000fd5b5050600280546001810182556000919091527f405787fa12a823e0f2b7631cc41b3ba8828b3321ca811111fa75cd3aa3bb5ace0180546001600160a01b0319166001600160a01b0385811691821790925560a05160405163095ea7b360e01b815260048101929092526000196024830152909116925063095ea7b391506044016020604051808303816000875af1158015620001e0573d6000803e3d6000fd5b505050506040513d601f19601f8201168201806040525081019062000206919062000352565b50806001600160a01b03167fa510df27d6e51efd91d3f55722bad1f26bf924a63e5dcee07c2ab4c3d4992dcc426040516200024391815260200190565b60405180910390a250565b6000763d602d80600a3d3981f3363d3d373d3d3d363d730000008260601b60e81c176000526e5af43d82803e903d91602b57fd5bf38260781b17602052603760096000f090506001600160a01b038116620002ef5760405162461bcd60e51b815260206004820152601660248201527f455243313136373a20637265617465206661696c656400000000000000000000604482015260640160405180910390fd5b919050565b6125738062000fd283390190565b80516001600160a01b0381168114620002ef57600080fd5b600080604083850312156200032e57600080fd5b620003398362000302565b9150620003496020840162000302565b90509250929050565b6000602082840312156200036557600080fd5b815180151581146200037657600080fd5b9392505050565b60805160a051610c14620003be6000396000818160cd01528181610228015281816105e4015261099b0152600081816101a5015261089d0152610c146000f3fe6080604052600436106100865760003560e01c80639c841fef116100595780639c841fef14610131578063b046229614610151578063b2e1a35114610171578063bba48a9014610193578063ee6d040c146101c757600080fd5b806339c973d31461008b5780633fc8cef3146100bb5780634444ccae146101075780638c64ea4a14610111575b600080fd5b34801561009757600080fd5b506100a86801bc16d674ec80000081565b6040519081526020015b60405180910390f35b3480156100c757600080fd5b506100ef7f000000000000000000000000000000000000000000000000000000000000000081565b6040516001600160a01b0390911681526020016100b2565b61010f6101dc565b005b34801561011d57600080fd5b506100ef61012c366004610add565b61049e565b34801561013d57600080fd5b506100ef61014c366004610af6565b6104c8565b34801561015d57600080fd5b5061010f61016c366004610add565b610500565b34801561017d57600080fd5b50610186610777565b6040516100b29190610b2e565b34801561019f57600080fd5b506100ef7f000000000000000000000000000000000000000000000000000000000000000081565b3480156101d357600080fd5b506002546100a8565b600034116102265760405162461bcd60e51b8152602060048201526012602482015271696e73756666696369656e742066756e647360701b60448201526064015b60405180910390fd5b7f00000000000000000000000000000000000000000000000000000000000000006001600160a01b031663d0e30db0346040518263ffffffff1660e01b81526004016000604051808303818588803b15801561028157600080fd5b505af1158015610295573d6000803e3d6000fd5b505050505060008060009054906101000a90046001600160a01b03166001600160a01b03166301e1d1146040518163ffffffff1660e01b8152600401602060405180830381865afa1580156102ee573d6000803e3d6000fd5b505050506040513d601f19601f820116820180604052508101906103129190610b7b565b9050600061033261032c836801bc16d674ec800000610b94565b3461087c565b600054604051636e553f6560e01b8152600481018390523360248201529192506001600160a01b031690636e553f65906044016020604051808303816000875af1158015610384573d6000803e3d6000fd5b505050506040513d601f19601f820116820180604052508101906103a89190610b7b565b5033600090815260016020818152604080842084548154948501825590855282852090930180546001600160a01b0319166001600160a01b03948516179055925483516318160ddd60e01b815293516801bc16d674ec8000009491909316926318160ddd926004808401939192918290030181865afa15801561042f573d6000803e3d6000fd5b505050506040513d601f19601f820116820180604052508101906104539190610b7b565b0361046057610460610896565b6040805182815242602082015233917f92023dd282de3eea749a3a27a58271d70f04c1f7905fce2e1996ec9bdfccf33b910160405180910390a25050565b600281815481106104ae57600080fd5b6000918252602090912001546001600160a01b0316905081565b600160205281600052604060002081815481106104e457600080fd5b6000918252602090912001546001600160a01b03169150829050565b600081116105455760405162461bcd60e51b8152602060048201526012602482015271696e73756666696369656e742066756e647360701b604482015260640161021d565b60008060009054906101000a90046001600160a01b03166001600160a01b03166301e1d1146040518163ffffffff1660e01b8152600401602060405180830381865afa158015610599573d6000803e3d6000fd5b505050506040513d601f19601f820116820180604052508101906105bd9190610b7b565b905060006105dd6105d7836801bc16d674ec800000610b94565b8461087c565b905061060b7f0000000000000000000000000000000000000000000000000000000000000000333084610a53565b600054604051636e553f6560e01b8152600481018390523360248201526001600160a01b0390911690636e553f65906044016020604051808303816000875af115801561065c573d6000803e3d6000fd5b505050506040513d601f19601f820116820180604052508101906106809190610b7b565b5033600090815260016020818152604080842084548154948501825590855282852090930180546001600160a01b0319166001600160a01b03948516179055925483516318160ddd60e01b815293516801bc16d674ec8000009491909316926318160ddd926004808401939192918290030181865afa158015610707573d6000803e3d6000fd5b505050506040513d601f19601f8201168201806040525081019061072b9190610b7b565b0361073857610738610896565b6040805182815242602082015233917f92023dd282de3eea749a3a27a58271d70f04c1f7905fce2e1996ec9bdfccf33b910160405180910390a2505050565b336000908152600160209081526040918290208054835181840281018401909452808452606093928301828280156107d857602002820191906000526020600020905b81546001600160a01b031681526001909101906020018083116107ba575b5050505050905090565b6000763d602d80600a3d3981f3363d3d373d3d3d363d730000008260601b60e81c176000526e5af43d82803e903d91602b57fd5bf38260781b17602052603760096000f090506001600160a01b0381166108775760405162461bcd60e51b8152602060048201526016602482015275115490cc4c4d8dce8818dc99585d194819985a5b195960521b604482015260640161021d565b919050565b600081831061088b578161088d565b825b90505b92915050565b60006108c17f00000000000000000000000000000000000000000000000000000000000000006107e2565b600080546001600160a01b0319166001600160a01b03831690811782556040805163204a7f0760e21b815290519394509092638129fc1c9260048084019391929182900301818387803b15801561091757600080fd5b505af115801561092b573d6000803e3d6000fd5b5050600280546001810182556000919091527f405787fa12a823e0f2b7631cc41b3ba8828b3321ca811111fa75cd3aa3bb5ace0180546001600160a01b0319166001600160a01b0385811691821790925560405163095ea7b360e01b8152600481019190915260001960248201527f0000000000000000000000000000000000000000000000000000000000000000909116925063095ea7b391506044016020604051808303816000875af11580156109e8573d6000803e3d6000fd5b505050506040513d601f19601f82011682018060405250810190610a0c9190610bb5565b50806001600160a01b03167fa510df27d6e51efd91d3f55722bad1f26bf924a63e5dcee07c2ab4c3d4992dcc42604051610a4891815260200190565b60405180910390a250565b60006040516323b872dd60e01b81528460048201528360248201528260448201526020600060648360008a5af13d15601f3d1160016000511416171691505080610ad65760405162461bcd60e51b81526020600482015260146024820152731514905394d1915497d19493d357d1905253115160621b604482015260640161021d565b5050505050565b600060208284031215610aef57600080fd5b5035919050565b60008060408385031215610b0957600080fd5b82356001600160a01b0381168114610b2057600080fd5b946020939093013593505050565b6020808252825182820181905260009190848201906040850190845b81811015610b6f5783516001600160a01b031683529284019291840191600101610b4a565b50909695505050505050565b600060208284031215610b8d57600080fd5b5051919050565b8181038181111561089057634e487b7160e01b600052601160045260246000fd5b600060208284031215610bc757600080fd5b81518015158114610bd757600080fd5b939250505056fea2646970667358221220c8678dcc649650deb20394e78530cdb3f52d97957b8d2a31ca7e11a8d49d1ddc64736f6c634300081000336101406040523480156200001257600080fd5b506040516200257338038062002573833981016040819052620000359162000250565b806040518060400160405280601281526020017129ba30b5b2aa37b3b2ba3432b92a37b5b2b760711b8152506040518060400160405280600381526020016214d51560ea1b8152508181846001600160a01b031663313ce5676040518163ffffffff1660e01b8152600401602060405180830381865afa158015620000be573d6000803e3d6000fd5b505050506040513d601f19601f82011682018060405250810190620000e4919062000291565b6000620000f2848262000362565b50600162000101838262000362565b5060ff81166080524660a0526200011762000197565b60c0525050506001600160a01b0390921660e0525050816200017f5760405162461bcd60e51b815260206004820152601460248201527f496e76616c6964205641554c545f414d4f554e54000000000000000000000000604482015260640160405180910390fd5b50610120526001600160a01b031661010052620004ac565b60007f8b73c3c69bb8fe3d512ecc4cf759cc79239f7b179b0ffacaa9a75d522b39400f6000604051620001cb91906200042e565b6040805191829003822060208301939093528101919091527fc89efdaa54c0f20c7adf612882df0950f5a951637e0307cdcb4c672f298b8bc660608201524660808201523060a082015260c00160405160208183030381529060405280519060200120905090565b80516001600160a01b03811681146200024b57600080fd5b919050565b6000806000606084860312156200026657600080fd5b620002718462000233565b925060208401519150620002886040850162000233565b90509250925092565b600060208284031215620002a457600080fd5b815160ff81168114620002b657600080fd5b9392505050565b634e487b7160e01b600052604160045260246000fd5b600181811c90821680620002e857607f821691505b6020821081036200030957634e487b7160e01b600052602260045260246000fd5b50919050565b601f8211156200035d57600081815260208120601f850160051c81016020861015620003385750805b601f850160051c820191505b81811015620003595782815560010162000344565b5050505b505050565b81516001600160401b038111156200037e576200037e620002bd565b62000396816200038f8454620002d3565b846200030f565b602080601f831160018114620003ce5760008415620003b55750858301515b600019600386901b1c1916600185901b17855562000359565b600085815260208120601f198616915b82811015620003ff57888601518255948401946001909101908401620003de565b50858210156200041e5787850151600019600388901b60f8161c191681555b5050505050600190811b01905550565b60008083546200043e81620002d3565b600182811680156200045957600181146200046f57620004a0565b60ff1984168752821515830287019450620004a0565b8760005260208060002060005b85811015620004975781548a8201529084019082016200047c565b50505082870194505b50929695505050505050565b60805160a05160c05160e05161010051610120516120006200057360003960008181610450015281816104f7015281816106a4015281816118db0152818161192301526119de01526000818161048401528181610b270152818161145401526119af0152600081816104040152818161080101528181610b8701528181610c9f01528181610e430152818161103e0152818161118a015281816114ab01528181611606015261195101526000610ad601526000610aa60152600061039201526120006000f3fe6080604052600436106102295760003560e01c806370a0823111610123578063c19d93fb116100ab578063d707a6521161006f578063d707a65214610726578063d905777e1461073b578063dd62ed3e14610771578063ef8b30f7146107a9578063f14210a6146107c957600080fd5b8063c19d93fb1461065f578063c63d75b614610686578063c6e6f592146106c6578063ce96cb77146106e6578063d505accf1461070657600080fd5b806395d89b41116100f257806395d89b41146105ca578063a9059cbb146105df578063b3d7f6b9146105ff578063b460af941461061f578063ba0876521461063f57600080fd5b806370a082311461053b5780637ecebe00146105685780638129fc1c1461059557806394bf804d146105aa57600080fd5b8063313ce567116101b15780633a4b66f1116101755780633a4b66f114610472578063402d267d146104a65780634cdad506146104c85780636083e59a146104e85780636e553f651461051b57600080fd5b8063313ce567146103805780633644e515146103c65780633882f742146103db57806338d52e0f146103f257806339c973d31461043e57600080fd5b80630a28a477116101f85780630a28a477146102cf578063150b7a02146102ef57806317d70f7c1461033457806318160ddd1461034a57806323b872dd1461036057600080fd5b806301e1d1141461023557806306fdde031461025d57806307a2d13a1461027f578063095ea7b31461029f57600080fd5b3661023057005b600080fd5b34801561024157600080fd5b5061024a6107e9565b6040519081526020015b60405180910390f35b34801561026957600080fd5b5061027261087a565b6040516102549190611b9a565b34801561028b57600080fd5b5061024a61029a366004611be8565b610908565b3480156102ab57600080fd5b506102bf6102ba366004611c1d565b610935565b6040519015158152602001610254565b3480156102db57600080fd5b5061024a6102ea366004611be8565b6109a2565b3480156102fb57600080fd5b5061031b61030a366004611c47565b630a85bd0160e11b95945050505050565b6040516001600160e01b03199091168152602001610254565b34801561034057600080fd5b5061024a60075481565b34801561035657600080fd5b5061024a60025481565b34801561036c57600080fd5b506102bf61037b366004611ce2565b6109c2565b34801561038c57600080fd5b506103b47f000000000000000000000000000000000000000000000000000000000000000081565b60405160ff9091168152602001610254565b3480156103d257600080fd5b5061024a610aa2565b3480156103e757600080fd5b506103f0610af8565b005b3480156103fe57600080fd5b506104267f000000000000000000000000000000000000000000000000000000000000000081565b6040516001600160a01b039091168152602001610254565b34801561044a57600080fd5b5061024a7f000000000000000000000000000000000000000000000000000000000000000081565b34801561047e57600080fd5b506104267f000000000000000000000000000000000000000000000000000000000000000081565b3480156104b257600080fd5b5061024a6104c1366004611d1e565b5060001990565b3480156104d457600080fd5b5061024a6104e3366004611be8565b610c3c565b3480156104f457600080fd5b507f000000000000000000000000000000000000000000000000000000000000000061024a565b34801561052757600080fd5b5061024a610536366004611d39565b610c47565b34801561054757600080fd5b5061024a610556366004611d1e565b60036020526000908152604090205481565b34801561057457600080fd5b5061024a610583366004611d1e565b60056020526000908152604090205481565b3480156105a157600080fd5b506103f0610d21565b3480156105b657600080fd5b5061024a6105c5366004611d39565b610e29565b3480156105d657600080fd5b50610272610ec5565b3480156105eb57600080fd5b506102bf6105fa366004611c1d565b610ed2565b34801561060b57600080fd5b5061024a61061a366004611be8565b610f38565b34801561062b57600080fd5b5061024a61063a366004611d65565b610f57565b34801561064b57600080fd5b5061024a61065a366004611d65565b611065565b34801561066b57600080fd5b506008546106799060ff1681565b6040516102549190611db7565b34801561069257600080fd5b5061024a6106a1366004611d1e565b507f000000000000000000000000000000000000000000000000000000000000000090565b3480156106d257600080fd5b5061024a6106e1366004611be8565b6111b1565b3480156106f257600080fd5b5061024a610701366004611d1e565b6111d1565b34801561071257600080fd5b506103f0610721366004611ddf565b6111f3565b34801561073257600080fd5b5061024a611437565b34801561074757600080fd5b5061024a610756366004611d1e565b6001600160a01b031660009081526003602052604090205490565b34801561077d57600080fd5b5061024a61078c366004611e52565b600460209081526000928352604080842090915290825290205481565b3480156107b557600080fd5b5061024a6107c4366004611be8565b61148b565b3480156107d557600080fd5b506103f06107e4366004611be8565b611496565b6040516370a0823160e01b81523060048201526000907f00000000000000000000000000000000000000000000000000000000000000006001600160a01b0316906370a08231906024015b602060405180830381865afa158015610851573d6000803e3d6000fd5b505050506040513d601f19601f820116820180604052508101906108759190611e7c565b905090565b6000805461088790611e95565b80601f01602080910402602001604051908101604052809291908181526020018280546108b390611e95565b80156109005780601f106108d557610100808354040283529160200191610900565b820191906000526020600020905b8154815290600101906020018083116108e357829003601f168201915b505050505081565b600254600090801561092c5761092761091f6107e9565b8490836116b9565b61092e565b825b9392505050565b3360008181526004602090815260408083206001600160a01b038716808552925280832085905551919290917f8c5be1e5ebec7d5bd14f71427d1e84f3dd0314c0f7b2291e5b200ac8c7c3b925906109909086815260200190565b60405180910390a35060015b92915050565b600254600090801561092c57610927816109ba6107e9565b8591906116d8565b6001600160a01b03831660009081526004602090815260408083203384529091528120546000198114610a1e576109f98382611ee5565b6001600160a01b03861660009081526004602090815260408083203384529091529020555b6001600160a01b03851660009081526003602052604081208054859290610a46908490611ee5565b90915550506001600160a01b0380851660008181526003602052604090819020805487019055519091871690600080516020611fab83398151915290610a8f9087815260200190565b60405180910390a3506001949350505050565b60007f00000000000000000000000000000000000000000000000000000000000000004614610ad357610875611706565b507f000000000000000000000000000000000000000000000000000000000000000090565b6008805460ff1916600217905560075460405163d91f8f2b60e01b815260048101919091526001600160a01b037f0000000000000000000000000000000000000000000000000000000000000000169063d91f8f2b90602401600060405180830381600087803b158015610b6b57600080fd5b505af1158015610b7f573d6000803e3d6000fd5b5050505060007f00000000000000000000000000000000000000000000000000000000000000006001600160a01b03164760405160006040518083038185875af1925050503d8060008114610bf0576040519150601f19603f3d011682016040523d82523d6000602084013e610bf5565b606091505b5050905080610c395760405162461bcd60e51b815260206004820152600b60248201526a1cd95b990819985a5b195960aa1b60448201526064015b60405180910390fd5b50565b600061099c82610908565b6000610c528361148b565b905080600003610c925760405162461bcd60e51b815260206004820152600b60248201526a5a45524f5f53484152455360a81b6044820152606401610c30565b610cc76001600160a01b037f0000000000000000000000000000000000000000000000000000000000000000163330866117a0565b610cd1828261182a565b60408051848152602081018390526001600160a01b0384169133917fdcbc1c05240f31ff3ad067ef1ee35ce4997762752e3a095284754544f4c709d7910160405180910390a361099c8382611884565b600654610100900460ff1615808015610d415750600654600160ff909116105b80610d5b5750303b158015610d5b575060065460ff166001145b610dbe5760405162461bcd60e51b815260206004820152602e60248201527f496e697469616c697a61626c653a20636f6e747261637420697320616c72656160448201526d191e481a5b9a5d1a585b1a5e995960921b6064820152608401610c30565b6006805460ff191660011790558015610de1576006805461ff0019166101001790555b8015610c39576006805461ff0019169055604051600181527f7f26b83ff96e1f2b6a682f133852f6798a09c465da95921460cefb38474024989060200160405180910390a150565b6000610e3483610f38565b9050610e6b6001600160a01b037f0000000000000000000000000000000000000000000000000000000000000000163330846117a0565b610e75828461182a565b60408051828152602081018590526001600160a01b0384169133917fdcbc1c05240f31ff3ad067ef1ee35ce4997762752e3a095284754544f4c709d7910160405180910390a361099c8184611884565b6001805461088790611e95565b33600090815260036020526040812080548391908390610ef3908490611ee5565b90915550506001600160a01b03831660008181526003602052604090819020805485019055513390600080516020611fab833981519152906109909086815260200190565b600254600090801561092c57610927610f4f6107e9565b8490836116d8565b6000610f62846109a2565b9050336001600160a01b03831614610fd2576001600160a01b03821660009081526004602090815260408083203384529091529020546000198114610fd057610fab8282611ee5565b6001600160a01b03841660009081526004602090815260408083203384529091529020555b505b610fdc8482611a5a565b610fe68282611ac0565b60408051858152602081018390526001600160a01b03808516929086169133917ffbde797d201c681b91056529119e0b02407c7bb96a4a2c75c01fc9667232c8db910160405180910390a461092e6001600160a01b037f0000000000000000000000000000000000000000000000000000000000000000168486611b22565b6000336001600160a01b038316146110d5576001600160a01b038216600090815260046020908152604080832033845290915290205460001981146110d3576110ae8582611ee5565b6001600160a01b03841660009081526004602090815260408083203384529091529020555b505b6110de84610c3c565b90508060000361111e5760405162461bcd60e51b815260206004820152600b60248201526a5a45524f5f41535345545360a81b6044820152606401610c30565b6111288185611a5a565b6111328285611ac0565b60408051828152602081018690526001600160a01b03808516929086169133917ffbde797d201c681b91056529119e0b02407c7bb96a4a2c75c01fc9667232c8db910160405180910390a461092e6001600160a01b037f0000000000000000000000000000000000000000000000000000000000000000168483611b22565b600254600090801561092c57610927816111c96107e9565b8591906116b9565b6001600160a01b03811660009081526003602052604081205461099c90610908565b428410156112435760405162461bcd60e51b815260206004820152601760248201527f5045524d49545f444541444c494e455f455850495245440000000000000000006044820152606401610c30565b6000600161124f610aa2565b6001600160a01b038a811660008181526005602090815260409182902080546001810190915582517f6e71edae12b1b97f4d1f60370fef10105fa2faae0126114a169c64845d6126c98184015280840194909452938d166060840152608083018c905260a083019390935260c08083018b90528151808403909101815260e08301909152805192019190912061190160f01b6101008301526101028201929092526101228101919091526101420160408051601f198184030181528282528051602091820120600084529083018083525260ff871690820152606081018590526080810184905260a0016020604051602081039080840390855afa15801561135b573d6000803e3d6000fd5b5050604051601f1901519150506001600160a01b038116158015906113915750876001600160a01b0316816001600160a01b0316145b6113ce5760405162461bcd60e51b815260206004820152600e60248201526d24a72b20a624a22fa9a4a3a722a960911b6044820152606401610c30565b6001600160a01b0390811660009081526004602090815260408083208a8516808552908352928190208990555188815291928a16917f8c5be1e5ebec7d5bd14f71427d1e84f3dd0314c0f7b2291e5b200ac8c7c3b925910160405180910390a350505050505050565b600754604051638f7ecc6760e01b81526000916001600160a01b037f00000000000000000000000000000000000000000000000000000000000000001691638f7ecc67916108349160040190815260200190565b600061099c826111b1565b6040516370a0823160e01b81523060048201527f0000000000000000000000000000000000000000000000000000000000000000906000906001600160a01b038316906370a0823190602401602060405180830381865afa1580156114ff573d6000803e3d6000fd5b505050506040513d601f19601f820116820180604052508101906115239190611e7c565b9050611530833033610f57565b506040516370a0823160e01b815230600482015281906001600160a01b038416906370a0823190602401602060405180830381865afa158015611577573d6000803e3d6000fd5b505050506040513d601f19601f8201168201806040525081019061159b9190611e7c565b6115a59190611ee5565b604051632e1a7d4d60e01b8152600481018290529091506001600160a01b03831690632e1a7d4d90602401600060405180830381600087803b1580156115ea57600080fd5b505af11580156115fe573d6000803e3d6000fd5b5050505060007f00000000000000000000000000000000000000000000000000000000000000006001600160a01b03168260405160006040518083038185875af1925050503d806000811461166f576040519150601f19603f3d011682016040523d82523d6000602084013e611674565b606091505b50509050806116b35760405162461bcd60e51b815260206004820152600b60248201526a1cd95b990819985a5b195960aa1b6044820152606401610c30565b50505050565b8282028115158415858304851417166116d157600080fd5b0492915050565b8282028115158415858304851417166116f057600080fd5b6001826001830304018115150290509392505050565b60007f8b73c3c69bb8fe3d512ecc4cf759cc79239f7b179b0ffacaa9a75d522b39400f60006040516117389190611ef8565b6040805191829003822060208301939093528101919091527fc89efdaa54c0f20c7adf612882df0950f5a951637e0307cdcb4c672f298b8bc660608201524660808201523060a082015260c00160405160208183030381529060405280519060200120905090565b60006040516323b872dd60e01b81528460048201528360248201528260448201526020600060648360008a5af13d15601f3d11600160005114161716915050806118235760405162461bcd60e51b81526020600482015260146024820152731514905394d1915497d19493d357d1905253115160621b6044820152606401610c30565b5050505050565b806002600082825461183c9190611f97565b90915550506001600160a01b038216600081815260036020908152604080832080548601905551848152600080516020611fab83398151915291015b60405180910390a35050565b600060085460ff16600281111561189d5761189d611da1565b146118d95760405162461bcd60e51b815260206004820152600c60248201526b18d85b9d0819195c1bdcda5d60a21b6044820152606401610c30565b7f00000000000000000000000000000000000000000000000000000000000000006119026107e9565b03611a56576008805460ff19166001179055604051632e1a7d4d60e01b81527f000000000000000000000000000000000000000000000000000000000000000060048201526001600160a01b037f00000000000000000000000000000000000000000000000000000000000000001690632e1a7d4d90602401600060405180830381600087803b15801561199557600080fd5b505af11580156119a9573d6000803e3d6000fd5b505050507f00000000000000000000000000000000000000000000000000000000000000006001600160a01b031663b9c4788c7f00000000000000000000000000000000000000000000000000000000000000006040518263ffffffff1660e01b815260040160206040518083038185885af1158015611a2d573d6000803e3d6000fd5b50505050506040513d601f19601f82011682018060405250810190611a529190611e7c565b6007555b5050565b600160085460ff166002811115611a7357611a73611da1565b03611a565760405162461bcd60e51b815260206004820152601860248201527f6e6f646520776f726b696e672c2066756e6473206c6f636b00000000000000006044820152606401610c30565b6001600160a01b03821660009081526003602052604081208054839290611ae8908490611ee5565b90915550506002805482900390556040518181526000906001600160a01b03841690600080516020611fab83398151915290602001611878565b600060405163a9059cbb60e01b8152836004820152826024820152602060006044836000895af13d15601f3d11600160005114161716915050806116b35760405162461bcd60e51b815260206004820152600f60248201526e1514905394d1915497d19052531151608a1b6044820152606401610c30565b600060208083528351808285015260005b81811015611bc757858101830151858201604001528201611bab565b506000604082860101526040601f19601f8301168501019250505092915050565b600060208284031215611bfa57600080fd5b5035919050565b80356001600160a01b0381168114611c1857600080fd5b919050565b60008060408385031215611c3057600080fd5b611c3983611c01565b946020939093013593505050565b600080600080600060808688031215611c5f57600080fd5b611c6886611c01565b9450611c7660208701611c01565b935060408601359250606086013567ffffffffffffffff80821115611c9a57600080fd5b818801915088601f830112611cae57600080fd5b813581811115611cbd57600080fd5b896020828501011115611ccf57600080fd5b9699959850939650602001949392505050565b600080600060608486031215611cf757600080fd5b611d0084611c01565b9250611d0e60208501611c01565b9150604084013590509250925092565b600060208284031215611d3057600080fd5b61092e82611c01565b60008060408385031215611d4c57600080fd5b82359150611d5c60208401611c01565b90509250929050565b600080600060608486031215611d7a57600080fd5b83359250611d8a60208501611c01565b9150611d9860408501611c01565b90509250925092565b634e487b7160e01b600052602160045260246000fd5b6020810160038310611dd957634e487b7160e01b600052602160045260246000fd5b91905290565b600080600080600080600060e0888a031215611dfa57600080fd5b611e0388611c01565b9650611e1160208901611c01565b95506040880135945060608801359350608088013560ff81168114611e3557600080fd5b9699959850939692959460a0840135945060c09093013592915050565b60008060408385031215611e6557600080fd5b611e6e83611c01565b9150611d5c60208401611c01565b600060208284031215611e8e57600080fd5b5051919050565b600181811c90821680611ea957607f821691505b602082108103611ec957634e487b7160e01b600052602260045260246000fd5b50919050565b634e487b7160e01b600052601160045260246000fd5b8181038181111561099c5761099c611ecf565b600080835481600182811c915080831680611f1457607f831692505b60208084108203611f3357634e487b7160e01b86526022600452602486fd5b818015611f475760018114611f5c57611f89565b60ff1986168952841515850289019650611f89565b60008a81526020902060005b86811015611f815781548b820152908501908301611f68565b505084890196505b509498975050505050505050565b8082018082111561099c5761099c611ecf56feddf252ad1be2c89b69c2b068fc378daa952ba7f163c4a11628f55a4df523b3efa264697066735822122095eaa41e699d8e4875ad8e26fa68fb1219f897ba526ae4071e81665f41865e3764736f6c63430008100033",
    "linkReferences": {}
  },
  "methodIdentifiers": {
    "VAULT_AMOUNT()": "39c973d3",
    "depositToVault()": "4444ccae",
    "depositToVault(uint256)": "b0462296",
    "getUserVaults()": "b2e1a351",
    "getVaultsLen()": "ee6d040c",
    "userVaults(address,uint256)": "9c841fef",
    "vaultImplementation()": "bba48a90",
    "vaults(uint256)": "8c64ea4a",
    "weth()": "3fc8cef3"
  },
  "id": 29
}